{
  "contractName": "Market",
  "abi": [
    {
      "constant": true,
      "inputs": [
        {
          "name": "client",
          "type": "address"
        }
      ],
      "name": "getClientPool",
      "outputs": [
        {
          "name": "",
          "type": "address"
        }
      ],
      "payable": false,
      "stateMutability": "view",
      "type": "function"
    },
    {
      "constant": true,
      "inputs": [
        {
          "name": "owner",
          "type": "address"
        }
      ],
      "name": "getOwnedPools",
      "outputs": [
        {
          "name": "",
          "type": "address[]"
        }
      ],
      "payable": false,
      "stateMutability": "view",
      "type": "function"
    },
    {
      "constant": false,
      "inputs": [
        {
          "name": "poolAddress",
          "type": "address"
        }
      ],
      "name": "joinMarketplace",
      "outputs": [
        {
          "name": "",
          "type": "bool"
        }
      ],
      "payable": false,
      "stateMutability": "nonpayable",
      "type": "function"
    },
    {
      "constant": false,
      "inputs": [
        {
          "name": "poolAddress",
          "type": "address"
        },
        {
          "name": "amount",
          "type": "uint256"
        }
      ],
      "name": "payPool",
      "outputs": [
        {
          "name": "",
          "type": "bool"
        }
      ],
      "payable": false,
      "stateMutability": "nonpayable",
      "type": "function"
    },
    {
      "constant": false,
      "inputs": [
        {
          "name": "publicKey",
          "type": "string"
        }
      ],
      "name": "createPool",
      "outputs": [
        {
          "name": "",
          "type": "address"
        }
      ],
      "payable": false,
      "stateMutability": "nonpayable",
      "type": "function"
    },
    {
      "inputs": [
        {
          "name": "tokenAddress",
          "type": "address"
        },
        {
          "name": "cost",
          "type": "uint256"
        }
      ],
      "payable": false,
      "stateMutability": "nonpayable",
      "type": "constructor"
    }
  ],
  "bytecode": "0x6060604052341561000f57600080fd5b6040516040806128b68339810160405280805190602001909190805190602001909190505081600560006101000a81548173ffffffffffffffffffffffffffffffffffffffff021916908373ffffffffffffffffffffffffffffffffffffffff1602179055508060068190555050506128298061008d6000396000f30060606040526004361061006d576000357c0100000000000000000000000000000000000000000000000000000000900463ffffffff1680632db5b54e1461007257806333e7f452146100eb578063ac0b044514610179578063c2704bd3146101ca578063d0d1303614610224575b600080fd5b341561007d57600080fd5b6100a9600480803573ffffffffffffffffffffffffffffffffffffffff169060200190919050506102c1565b604051808273ffffffffffffffffffffffffffffffffffffffff1673ffffffffffffffffffffffffffffffffffffffff16815260200191505060405180910390f35b34156100f657600080fd5b610122600480803573ffffffffffffffffffffffffffffffffffffffff1690602001909190505061032a565b6040518080602001828103825283818151815260200191508051906020019060200280838360005b8381101561016557808201518184015260208101905061014a565b505050509050019250505060405180910390f35b341561018457600080fd5b6101b0600480803573ffffffffffffffffffffffffffffffffffffffff169060200190919050506103fd565b604051808215151515815260200191505060405180910390f35b34156101d557600080fd5b61020a600480803573ffffffffffffffffffffffffffffffffffffffff16906020019091908035906020019091905050610664565b604051808215151515815260200191505060405180910390f35b341561022f57600080fd5b61027f600480803590602001908201803590602001908080601f0160208091040260200160405190810160405280939291908181526020018383808284378201915050505050509190505061078d565b604051808273ffffffffffffffffffffffffffffffffffffffff1673ffffffffffffffffffffffffffffffffffffffff16815260200191505060405180910390f35b6000600260008373ffffffffffffffffffffffffffffffffffffffff1673ffffffffffffffffffffffffffffffffffffffff16815260200190815260200160002060009054906101000a900473ffffffffffffffffffffffffffffffffffffffff169050919050565b6103326108fd565b600160008373ffffffffffffffffffffffffffffffffffffffff1673ffffffffffffffffffffffffffffffffffffffff1681526020019081526020016000208054806020026020016040519081016040528092919081815260200182805480156103f157602002820191906000526020600020905b8160009054906101000a900473ffffffffffffffffffffffffffffffffffffffff1673ffffffffffffffffffffffffffffffffffffffff16815260200190600101908083116103a7575b50505050509050919050565b6000803373ffffffffffffffffffffffffffffffffffffffff16600360008573ffffffffffffffffffffffffffffffffffffffff1673ffffffffffffffffffffffffffffffffffffffff16815260200190815260200160002060009054906101000a900473ffffffffffffffffffffffffffffffffffffffff1673ffffffffffffffffffffffffffffffffffffffff1614151561049957600080fd5b600560009054906101000a900473ffffffffffffffffffffffffffffffffffffffff1673ffffffffffffffffffffffffffffffffffffffff166323b872dd33306006546000604051602001526040518463ffffffff167c0100000000000000000000000000000000000000000000000000000000028152600401808473ffffffffffffffffffffffffffffffffffffffff1673ffffffffffffffffffffffffffffffffffffffff1681526020018373ffffffffffffffffffffffffffffffffffffffff1673ffffffffffffffffffffffffffffffffffffffff1681526020018281526020019350505050602060405180830381600087803b151561059c57600080fd5b6102c65a03f115156105ad57600080fd5b50505060405180519050508290506000803373ffffffffffffffffffffffffffffffffffffffff1673ffffffffffffffffffffffffffffffffffffffff168152602001908152602001600020805480600101828161060b9190610911565b9160005260206000209001600083909190916101000a81548173ffffffffffffffffffffffffffffffffffffffff021916908373ffffffffffffffffffffffffffffffffffffffff160217905550506001915050919050565b6000600560009054906101000a900473ffffffffffffffffffffffffffffffffffffffff1673ffffffffffffffffffffffffffffffffffffffff166323b872dd3085856000604051602001526040518463ffffffff167c0100000000000000000000000000000000000000000000000000000000028152600401808473ffffffffffffffffffffffffffffffffffffffff1673ffffffffffffffffffffffffffffffffffffffff1681526020018373ffffffffffffffffffffffffffffffffffffffff1673ffffffffffffffffffffffffffffffffffffffff1681526020018281526020019350505050602060405180830381600087803b151561076757600080fd5b6102c65a03f1151561077857600080fd5b50505060405180519050506001905092915050565b600080823361079a61093d565b80806020018373ffffffffffffffffffffffffffffffffffffffff1673ffffffffffffffffffffffffffffffffffffffff168152602001828103825284818151815260200191508051906020019080838360005b838110156108095780820151818401526020810190506107ee565b50505050905090810190601f1680156108365780820380516001836020036101000a031916815260200191505b509350505050604051809103906000f080151561085257600080fd5b9050600160003373ffffffffffffffffffffffffffffffffffffffff1673ffffffffffffffffffffffffffffffffffffffff16815260200190815260200160002080548060010182816108a59190610911565b9160005260206000209001600083909190916101000a81548173ffffffffffffffffffffffffffffffffffffffff021916908373ffffffffffffffffffffffffffffffffffffffff1602179055505080915050919050565b602060405190810160405280600081525090565b81548183558181151161093857818360005260206000209182019101610937919061094d565b5b505050565b604051611e8b8061097383390190565b61096f91905b8082111561096b576000816000905550600101610953565b5090565b90560060606040526020604051908101604052806000815250600890805190602001906200002c929190620000cb565b5034156200003957600080fd5b60405162001e8b38038062001e8b8339810160405280805182019190602001805190602001909190505080600060050160006101000a81548173ffffffffffffffffffffffffffffffffffffffff021916908373ffffffffffffffffffffffffffffffffffffffff1602179055508160006003019080519060200190620000c2929190620000cb565b5050506200017a565b828054600181600116156101000203166002900490600052602060002090601f016020900481019282601f106200010e57805160ff19168380011785556200013f565b828001600101855582156200013f579182015b828111156200013e57825182559160200191906001019062000121565b5b5090506200014e919062000152565b5090565b6200017791905b808211156200017357600081600090555060010162000159565b5090565b90565b611d01806200018a6000396000f300606060405260043610610107576000357c0100000000000000000000000000000000000000000000000000000000900463ffffffff16806309a4a5231461010c578063111a335f146101cb57806311560300146102595780631364e6d41461030b57806313746687146103bd57806318f82330146104395780631c587c83146104c757806329a8b99e14610521578063351e1798146105d3578063400008cf14610685578063454dd470146106be578063579576c81461073a57806362564c48146107ec5780636b538e27146108565780638dc7b697146108d25780639bed614514610972578063aa9bf1d4146109cf578063b2b99ec914610a08578063ee12b2c714610a41575b600080fd5b341561011757600080fd5b6101c9600480803573ffffffffffffffffffffffffffffffffffffffff1690602001909190803590602001908201803590602001908080601f0160208091040260200160405190810160405280939291908181526020018383808284378201915050505050509190803590602001908201803590602001908080601f01602080910402602001604051908101604052809392919081815260200183838082843782019150505050505091905050610af3565b005b34156101d657600080fd5b6101de610bec565b6040518080602001828103825283818151815260200191508051906020019080838360005b8381101561021e578082015181840152602081019050610203565b50505050905090810190601f16801561024b5780820380516001836020036101000a031916815260200191505b509250505060405180910390f35b341561026457600080fd5b610290600480803573ffffffffffffffffffffffffffffffffffffffff16906020019091905050610c97565b6040518080602001828103825283818151815260200191508051906020019080838360005b838110156102d05780820151818401526020810190506102b5565b50505050905090810190601f1680156102fd5780820380516001836020036101000a031916815260200191505b509250505060405180910390f35b341561031657600080fd5b610342600480803573ffffffffffffffffffffffffffffffffffffffff16906020019091905050610d81565b6040518080602001828103825283818151815260200191508051906020019080838360005b83811015610382578082015181840152602081019050610367565b50505050905090810190601f1680156103af5780820380516001836020036101000a031916815260200191505b509250505060405180910390f35b34156103c857600080fd5b610437600480803573ffffffffffffffffffffffffffffffffffffffff1690602001909190803590602001908201803590602001908080601f01602080910402602001604051908101604052809392919081815260200183838082843782019150505050505091905050610e6b565b005b341561044457600080fd5b61044c610f03565b6040518080602001828103825283818151815260200191508051906020019080838360005b8381101561048c578082015181840152602081019050610471565b50505050905090810190601f1680156104b95780820380516001836020036101000a031916815260200191505b509250505060405180910390f35b34156104d257600080fd5b61051f600480803590602001908201803590602001908080602002602001604051908101604052809392919081815260200183836020028082843782019150505050505091905050610fab565b005b341561052c57600080fd5b610558600480803573ffffffffffffffffffffffffffffffffffffffff16906020019091905050611027565b6040518080602001828103825283818151815260200191508051906020019080838360005b8381101561059857808201518184015260208101905061057d565b50505050905090810190601f1680156105c55780820380516001836020036101000a031916815260200191505b509250505060405180910390f35b34156105de57600080fd5b61060a600480803573ffffffffffffffffffffffffffffffffffffffff16906020019091905050611114565b6040518080602001828103825283818151815260200191508051906020019080838360005b8381101561064a57808201518184015260208101905061062f565b50505050905090810190601f1680156106775780820380516001836020036101000a031916815260200191505b509250505060405180910390f35b341561069057600080fd5b6106bc600480803573ffffffffffffffffffffffffffffffffffffffff169060200190919050506111fe565b005b34156106c957600080fd5b610738600480803573ffffffffffffffffffffffffffffffffffffffff1690602001909190803590602001908201803590602001908080601f01602080910402602001604051908101604052809392919081815260200183838082843782019150505050505091905050611334565b005b341561074557600080fd5b610771600480803573ffffffffffffffffffffffffffffffffffffffff169060200190919050506113ed565b6040518080602001828103825283818151815260200191508051906020019080838360005b838110156107b1578082015181840152602081019050610796565b50505050905090810190601f1680156107de5780820380516001836020036101000a031916815260200191505b509250505060405180910390f35b34156107f757600080fd5b6107ff6114da565b6040518080602001828103825283818151815260200191508051906020019060200280838360005b83811015610842578082015181840152602081019050610827565b505050509050019250505060405180910390f35b341561086157600080fd5b6108d0600480803573ffffffffffffffffffffffffffffffffffffffff1690602001909190803590602001908201803590602001908080601f0160208091040260200160405190810160405280939291908181526020018383808284378201915050505050509190505061156e565b005b34156108dd57600080fd5b610970600480803590602001908201803590602001908080601f0160208091040260200160405190810160405280939291908181526020018383808284378201915050505050509190803590602001908201803590602001908080601f01602080910402602001604051908101604052809392919081815260200183838082843782019150505050505091905050611661565b005b341561097d57600080fd5b6109cd600480803590602001908201803590602001908080601f016020809104026020016040519081016040528093929190818152602001838380828437820191505050505050919050506116f6565b005b34156109da57600080fd5b610a06600480803573ffffffffffffffffffffffffffffffffffffffff1690602001909190505061176f565b005b3415610a1357600080fd5b610a3f600480803573ffffffffffffffffffffffffffffffffffffffff16906020019091905050611865565b005b3415610a4c57600080fd5b610a78600480803573ffffffffffffffffffffffffffffffffffffffff1690602001909190505061192c565b6040518080602001828103825283818151815260200191508051906020019080838360005b83811015610ab8578082015181840152602081019050610a9d565b50505050905090810190601f168015610ae55780820380516001836020036101000a031916815260200191505b509250505060405180910390f35b604080519081016040528082815260200183815250600960008573ffffffffffffffffffffffffffffffffffffffff1673ffffffffffffffffffffffffffffffffffffffff1681526020019081526020016000206000820151816000019080519060200190610b63929190611a15565b506020820151816001019080519060200190610b80929190611a15565b50905050600b8054806001018281610b989190611a95565b9160005260206000209001600085909190916101000a81548173ffffffffffffffffffffffffffffffffffffffff021916908373ffffffffffffffffffffffffffffffffffffffff16021790555050505050565b610bf4611ac1565b60006003018054600181600116156101000203166002900480601f016020809104026020016040519081016040528092919081815260200182805460018160011615610100020316600290048015610c8d5780601f10610c6257610100808354040283529160200191610c8d565b820191906000526020600020905b815481529060010190602001808311610c7057829003601f168201915b5050505050905090565b610c9f611ac1565b600960008373ffffffffffffffffffffffffffffffffffffffff1673ffffffffffffffffffffffffffffffffffffffff1681526020019081526020016000206001018054600181600116156101000203166002900480601f016020809104026020016040519081016040528092919081815260200182805460018160011615610100020316600290048015610d755780601f10610d4a57610100808354040283529160200191610d75565b820191906000526020600020905b815481529060010190602001808311610d5857829003601f168201915b50505050509050919050565b610d89611ac1565b600960008373ffffffffffffffffffffffffffffffffffffffff1673ffffffffffffffffffffffffffffffffffffffff1681526020019081526020016000206000018054600181600116156101000203166002900480601f016020809104026020016040519081016040528092919081815260200182805460018160011615610100020316600290048015610e5f5780601f10610e3457610100808354040283529160200191610e5f565b820191906000526020600020905b815481529060010190602001808311610e4257829003601f168201915b50505050509050919050565b8173ffffffffffffffffffffffffffffffffffffffff163373ffffffffffffffffffffffffffffffffffffffff16141515610ea557600080fd5b80600060010160008473ffffffffffffffffffffffffffffffffffffffff1673ffffffffffffffffffffffffffffffffffffffff1681526020019081526020016000206000019080519060200190610efe929190611ad5565b505050565b610f0b611ac1565b60088054600181600116156101000203166002900480601f016020809104026020016040519081016040528092919081815260200182805460018160011615610100020316600290048015610fa15780601f10610f7657610100808354040283529160200191610fa1565b820191906000526020600020905b815481529060010190602001808311610f8457829003601f168201915b5050505050905090565b600060050160009054906101000a900473ffffffffffffffffffffffffffffffffffffffff1673ffffffffffffffffffffffffffffffffffffffff163373ffffffffffffffffffffffffffffffffffffffff1614151561100a57600080fd5b8060006002019080519060200190611023929190611b55565b5050565b61102f611ac1565b600060010160008373ffffffffffffffffffffffffffffffffffffffff1673ffffffffffffffffffffffffffffffffffffffff1681526020019081526020016000206000018054600181600116156101000203166002900480601f0160208091040260200160405190810160405280929190818152602001828054600181600116156101000203166002900480156111085780601f106110dd57610100808354040283529160200191611108565b820191906000526020600020905b8154815290600101906020018083116110eb57829003601f168201915b50505050509050919050565b61111c611ac1565b600960008373ffffffffffffffffffffffffffffffffffffffff1673ffffffffffffffffffffffffffffffffffffffff1681526020019081526020016000206000018054600181600116156101000203166002900480601f0160208091040260200160405190810160405280929190818152602001828054600181600116156101000203166002900480156111f25780601f106111c7576101008083540402835291602001916111f2565b820191906000526020600020905b8154815290600101906020018083116111d557829003601f168201915b50505050509050919050565b600060050160009054906101000a900473ffffffffffffffffffffffffffffffffffffffff1673ffffffffffffffffffffffffffffffffffffffff163373ffffffffffffffffffffffffffffffffffffffff1614151561125d57600080fd5b600960008273ffffffffffffffffffffffffffffffffffffffff1673ffffffffffffffffffffffffffffffffffffffff168152602001908152602001600020600060010160008373ffffffffffffffffffffffffffffffffffffffff1673ffffffffffffffffffffffffffffffffffffffff16815260200190815260200160002060008201816000019080546001816001161561010002031660029004611305929190611ba8565b506001820181600101908054600181600116156101000203166002900461132d929190611ba8565b5090505050565b600060050160009054906101000a900473ffffffffffffffffffffffffffffffffffffffff1673ffffffffffffffffffffffffffffffffffffffff163373ffffffffffffffffffffffffffffffffffffffff1614151561139357600080fd5b806000800160008473ffffffffffffffffffffffffffffffffffffffff1673ffffffffffffffffffffffffffffffffffffffff16815260200190815260200160002090805190602001906113e8929190611ad5565b505050565b6113f5611ac1565b600060010160008373ffffffffffffffffffffffffffffffffffffffff1673ffffffffffffffffffffffffffffffffffffffff1681526020019081526020016000206001018054600181600116156101000203166002900480601f0160208091040260200160405190810160405280929190818152602001828054600181600116156101000203166002900480156114ce5780601f106114a3576101008083540402835291602001916114ce565b820191906000526020600020905b8154815290600101906020018083116114b157829003601f168201915b50505050509050919050565b6114e2611c2f565b600b80548060200260200160405190810160405280929190818152602001828054801561156457602002820191906000526020600020905b8160009054906101000a900473ffffffffffffffffffffffffffffffffffffffff1673ffffffffffffffffffffffffffffffffffffffff168152602001906001019080831161151a575b5050505050905090565b8173ffffffffffffffffffffffffffffffffffffffff163373ffffffffffffffffffffffffffffffffffffffff1614806115f85750600060050160009054906101000a900473ffffffffffffffffffffffffffffffffffffffff1673ffffffffffffffffffffffffffffffffffffffff163373ffffffffffffffffffffffffffffffffffffffff16145b151561160357600080fd5b80600060010160008473ffffffffffffffffffffffffffffffffffffffff1673ffffffffffffffffffffffffffffffffffffffff168152602001908152602001600020600101908051906020019061165c929190611ad5565b505050565b604080519081016040528083815260200182815250600a60003373ffffffffffffffffffffffffffffffffffffffff1673ffffffffffffffffffffffffffffffffffffffff16815260200190815260200160002060008201518160000190805190602001906116d1929190611a15565b5060208201518160010190805190602001906116ee929190611a15565b509050505050565b600060050160009054906101000a900473ffffffffffffffffffffffffffffffffffffffff1673ffffffffffffffffffffffffffffffffffffffff163373ffffffffffffffffffffffffffffffffffffffff1614151561175557600080fd5b806008908051906020019061176b929190611ad5565b5050565b600060050160009054906101000a900473ffffffffffffffffffffffffffffffffffffffff1673ffffffffffffffffffffffffffffffffffffffff163373ffffffffffffffffffffffffffffffffffffffff161415156117ce57600080fd5b600a60008273ffffffffffffffffffffffffffffffffffffffff1673ffffffffffffffffffffffffffffffffffffffff168152602001908152602001600020600660008201816000019080546001816001161561010002031660029004611836929190611ba8565b506001820181600101908054600181600116156101000203166002900461185e929190611ba8565b5090505050565b600060050160009054906101000a900473ffffffffffffffffffffffffffffffffffffffff1673ffffffffffffffffffffffffffffffffffffffff163373ffffffffffffffffffffffffffffffffffffffff161415156118c457600080fd5b600060010160008273ffffffffffffffffffffffffffffffffffffffff1673ffffffffffffffffffffffffffffffffffffffff168152602001908152602001600020600080820160006119179190611c43565b6001820160006119279190611c43565b505050565b611934611ac1565b6000800160008373ffffffffffffffffffffffffffffffffffffffff1673ffffffffffffffffffffffffffffffffffffffff1681526020019081526020016000208054600181600116156101000203166002900480601f016020809104026020016040519081016040528092919081815260200182805460018160011615610100020316600290048015611a095780601f106119de57610100808354040283529160200191611a09565b820191906000526020600020905b8154815290600101906020018083116119ec57829003601f168201915b50505050509050919050565b828054600181600116156101000203166002900490600052602060002090601f016020900481019282601f10611a5657805160ff1916838001178555611a84565b82800160010185558215611a84579182015b82811115611a83578251825591602001919060010190611a68565b5b509050611a919190611c8b565b5090565b815481835581811511611abc57818360005260206000209182019101611abb9190611c8b565b5b505050565b602060405190810160405280600081525090565b828054600181600116156101000203166002900490600052602060002090601f016020900481019282601f10611b1657805160ff1916838001178555611b44565b82800160010185558215611b44579182015b82811115611b43578251825591602001919060010190611b28565b5b509050611b519190611c8b565b5090565b828054828255906000526020600020908101928215611b97579160200282015b82811115611b96578251829060001916905591602001919060010190611b75565b5b509050611ba49190611cb0565b5090565b828054600181600116156101000203166002900490600052602060002090601f016020900481019282601f10611be15780548555611c1e565b82800160010185558215611c1e57600052602060002091601f016020900482015b82811115611c1d578254825591600101919060010190611c02565b5b509050611c2b9190611c8b565b5090565b602060405190810160405280600081525090565b50805460018160011615610100020316600290046000825580601f10611c695750611c88565b601f016020900490600052602060002090810190611c879190611c8b565b5b50565b611cad91905b80821115611ca9576000816000905550600101611c91565b5090565b90565b611cd291905b80821115611cce576000816000905550600101611cb6565b5090565b905600a165627a7a72305820e4b98ce0fec7245e815f5bc0705f02ef660f908a66411137cdc5fcc357fac6ff0029a165627a7a723058205c09fb7070200656f30e5fa93483e4c804d09e5314938a59726720ac628065f30029",
  "source": "pragma solidity ^0.4.18;\n\nimport \"./Pool.sol\";\n\ncontract Token {\n    mapping (address => uint256) public balanceOf;\n    function getBal(address owner) public returns(uint256 bal);\n    function transferFrom(address _from, address _to, uint256 _value) public returns (bool success);\n}\n\ncontract Market {\n\n    mapping(address => Pool[]) marketPools; // all pools in market\n    mapping(address => Pool[]) ownedPools; // all pools created\n    mapping(address => Pool) clientPool; // pool that website uses\n    mapping(address => address) poolToOwner;\n    mapping(address => uint32) tokensPayed; // The number of tokens a person has payed to the market.\n\n    Token token;\n\n    uint256 joinCost; //cost to create a pool\n\n    /* Marketplace contrusctor, add the token address and the initial cost per pool */\n    function Market(address tokenAddress, uint256 cost) public {\n        token = Token(tokenAddress);\n        joinCost = cost;\n    }\n\n    /* Create a new pool. This is FREE but DOES NOT add pool to the marketplace */\n    function createPool(string publicKey) public returns(address) {\n        Pool p = new Pool(publicKey, msg.sender);\n        ownedPools[msg.sender].push(p);\n\n        return p;\n    }\n\n    /* Returns an array of all of the pools that belong to owner */\n    function getOwnedPools(address owner) public view returns(Pool[]) {\n        return ownedPools[owner];\n    }\n    /* Returns an array of all pools that a website(client) uses */\n    function getClientPool(address client) public view returns(Pool) {\n        return clientPool[client];\n    }\n\n    /* Add pool to the marketplace and charge the owner */\n    function joinMarketplace(address poolAddress) public returns(bool) {\n        require(poolToOwner[poolAddress] == msg.sender); //caller owns pool and pool exists\n\n        token.transferFrom(msg.sender, address(this), joinCost); //charge the caller to add to marketplace (right now just burn)\n\n        Pool p = Pool(poolAddress);\n        marketPools[msg.sender].push(p); //add pool to the marketplace\n\n        return true;\n    }\n\n    /* Pay pool certain amount. Manual as of now, automated in the future */\n    function payPool(address poolAddress, uint amount) public returns(bool){\n        token.transferFrom(address(this), poolAddress, amount);\n\n        return true;\n    }\n\n\n\n\n}\n",
  "sourcePath": "/Users/marcelom/Developer/gladius-marketplace-backend/contracts/market.sol",
  "compiler": {
    "name": "solc",
    "version": "0.4.18+commit.9cf6e910.Emscripten.clang"
  },
  "schemaVersion": "1.0.1",
  "updatedAt": "2018-01-18T16:26:48.018Z"
}